:020000040800F2
:10000000E80C0020510500083D0200083F020008EE
:100010004B020008570200086302000800000000BD
:100020000000000000000000000000006F02000857
:100030007102000800000000670500087302000854
:100040006B0500086B0500086B05000877020008C7
:100050006B0500086B0500087502000827160008EC
:100060006B0500086B0500086B0500086B050008B0
:100070006B0500086B0500086B0500086B050008A0
:100080006B0500086B0500086B0500086B05000890
:100090006B0500086B0500086B0500086B05000880
:1000A0006B0500086B0500086B0500086B05000870
:1000B0006B0500086B0500086B0500086B05000860
:1000C0006B0500086B0500086B0500086B05000850
:1000D0006B05000847150008C54800086B050008B7
:1000E0006B0500086B0500086B05000800F002F8BE
:1000F00000F094F80AA090E8000C82448344AAF12E
:100100000107DA4501D100F089F8AFF2090EBAE82B
:100110000F0013F0010F18BFFB1A43F0010318473B
:1001200088C70000A8C70000103A24BF78C878C16B
:10013000FAD8520724BF30C830C144BF04680C60ED
:10014000704700000023002400250026103A28BF35
:1001500078C1FBD8520728BF30C148BF0B60704739
:100160006E2906F06B87702906F00983662909F06D
:10017000BD87652909F0BA87672909F0B787612922
:10018000AFF3008003681B0A28BF41F08001692992
:1001900006F07A82642906F07782752906F0748267
:1001A0006F2907F06882782906F0D582E92907F0DF
:1001B0000382E42907F00082F52907F0FD81EF2989
:1001C00007F06582F82906F0D4820368DB0928BFAE
:1001D00041F08001632907F08481732907F0898148
:1001E000E32907F06183F32907F066830020704755
:1001F0001FB59DE8030006F075FE07F09BFA0400AA
:100200000020002109F04CF8401C60600020002113
:1002100009F05CF8E0601FBD10B510BD07F0A4FD4B
:100220001146FFF7E5FF02F084F907F0C2FD03B4C1
:10023000FFF7F2FF03BC07F033FE000070470EA18A
:100240001C4801F05CF900BFFEE71BA1194801F052
:1002500056F900BFFEE727A1164801F050F900BF8C
:10026000FEE733A1134801F04AF900BFFEE77047EB
:1002700070477047704770470D0A2A2A2A2A2A2A8F
:100280002A2A2A2A2A2A2A2A2A2A2A2A2A48617231
:10029000644661756C745F48616E646C65722A2A8D
:1002A0002A2A2A2A2A2A2A2A2A2A2A2A2A2A2A2AAE
:1002B0002A0D0A00003801400D0A2A2A2A2A2A2A71
:1002C0002A2A2A2A2A2A2A2A2A2A2A2A2A4D656DED
:1002D0004D616E6167655F48616E646C65722A2A64
:1002E0002A2A2A2A2A2A2A2A2A2A2A2A2A2A2A2A6E
:1002F0002A0D0A000D0A2A2A2A2A2A2A2A2A2A2A02
:100300002A2A2A2A2A2A2A2A2A4275734661756CC1
:10031000745F48616E646C65722A2A2A2A2A2A2A26
:100320002A2A2A2A2A2A2A2A2A2A2A2A0D0A0000BE
:100330000D0A2A2A2A2A2A2A2A2A2A2A2A2A2A2A5A
:100340002A2A2A2A2A55736167654661756C745F8B
:1003500048616E646C65722A2A2A2A2A2A2A2A2A65
:100360002A2A2A2A2A2A2A2A2A2A0D0A00000000D2
:100370000CB50020019000906C48006840F480307B
:100380006A49086000BF6948006800F400300090C6
:100390000198401C0190009818B90198B0F5A06F21
:1003A000F1D16248006800F4003010B101200090E3
:1003B00001E0002000900098012843D15C480068CB
:1003C00040F010005A4908600846006820F0030019
:1003D00008600846006840F0020008605348406822
:1003E000524948600846406848600846406840F402
:1003F000806048600846406820F47C1048600846E9
:10040000406840F4E81048600846006840F080709A
:10041000086000BF4548006800F000700028F9D06F
:100420004248406820F00300404948600846406860
:1004300040F00200486000BF3C48406800F00C00FB
:100440000828F9D10CBD10B5FFF792FF10BD10B50B
:100450003648006840F001003449086008464068AA
:10046000344908403149486008460068324908402C
:100470002E4908600846006820F48020086008467D
:10048000406820F4FE0048604FF41F008860FFF7CA
:10049000DAFF4FF000602949086010BD10B5002157
:1004A00000200022214B5B6803F00C0121B10429DC
:1004B00006D0082928D107E0214B224C236027E0F1
:1004C0001F4B204C236023E0184B5B6803F4701033
:1004D000164B5B6803F48032022303EB904022B991
:1004E000194B4343174C23600DE0104B5B6803F43A
:1004F000003323B1144B4343124C236003E0104BF1
:100500004343104C236003E00D4B0E4C236000BFAF
:1005100000BF064B5B68C3F303130C4CE15C094B53
:100520001B68CB40074C236010BD00000010024048
:10053000002002400000FFF8FFFFF6FE08ED00E09B
:1005400000127A000000002000093D000400002095
:100550000948804709480047FEE7FEE7FEE7FEE757
:10056000FEE7FEE7FEE7FEE7FEE7FEE70448054993
:10057000054A064B704700004F040008ED000008D4
:10058000E8020020E80C0020E8040020E804002035
:1005900031490143314A1160704770B50021002391
:1005A0000F22C47804B32D4C246804F4E064C4F52D
:1005B000E064210AC1F10403CA40447804FA03F15B
:1005C0008478144021430901254C0678A15504780C
:1005D00004F01F050124AC4005786D11AD0005F154
:1005E000E025C5F8004109E0047804F01F05012466
:1005F000AC401C4D0678761145F8264070BD1A4A6D
:100600000A400243154B1B1F1A60704739B1134A49
:10061000121D12680243114B1B1D1A6006E00F4A9F
:10062000121D126882430D4B1B1D1A60704704286F
:1006300008D14FF0E021096941F004014FF0E022B8
:10064000116107E04FF0E021096921F004014FF04A
:10065000E0221161704700000000FA050CED00E097
:1006600000E400E080E100E080FFFF1F10B50446D9
:10067000CC48844208D10121042000F02DFB002148
:10068000042000F029FB46E0C748844208D101213C
:10069000082000F021FB0021082000F01DFB3AE0BB
:1006A000C248844208D10121102000F015FB00212E
:1006B000102000F011FB2EE0BD48844208D101213A
:1006C000202000F009FB0021202000F005FB22E0A3
:1006D000B848844208D10121402000F0FDFA0021F1
:1006E000402000F0F9FA16E0B348844208D1012115
:1006F000802000F0F1FA0021802000F0EDFA0AE0FD
:10070000AE48844207D10121801500F0E5FA0021AE
:10071000A01500F0E1FA10BD10B50121084600F067
:10072000DBFA0021012000F0D7FA10BD2DE9F041DD
:10073000024600250026002000230024002791F80F
:1007400003C00CF00F0591F803C00CF0100CBCF1C5
:10075000000F03D091F802C04CEA050591F800C0E3
:10076000BCF1000F31D0146800202BE04FF0010CD9
:100770000CFA00F3B1F800C00CEA03069E4220D147
:1007800083004FF00F0C0CFA03F7BC4305FA03FC8F
:100790004CEA040491F803C0BCF1280F06D14FF0D5
:1007A000010C0CFA00FCC2F814C00AE091F803C076
:1007B000BCF1480F05D14FF0010C0CFA00FCC2F857
:1007C00010C0401C0828D1D31460B1F800C0BCF19F
:1007D000FF0F34DD546800202EE000F1080C4FF0CC
:1007E000010808FA0CF3B1F800C00CEA03069E42B7
:1007F00021D183004FF00F0C0CFA03F7BC4305FA2C
:1008000003FC4CEA040491F803C0BCF1280F05D1A5
:1008100000F1080C08FA0CF8C2F8148091F803C033
:10082000BCF1480F07D100F1080C4FF0010808FA9D
:100830000CF8C2F81080401C0828CED35460BDE8E4
:10084000F0814FF6FF710180022181700421C17097
:1008500070470246002093680B400BB1012000E076
:10086000002070470146886880B270470246002029
:10087000D3680B400BB1012000E000207047014617
:10088000C86880B2704701617047416170470AB122
:10089000016100E041617047C16070474FF48032F0
:1008A0000A4382618161826182698269704702467E
:1008B0000020434B18684FF68073184040EA02103E
:1008C00008433F4B186070473E49C8617047F0B518
:1008D0000A46002300240021002500F00046B6F15E
:1008E000004F02D1364EF16901E0354E7168C0F318
:1008F000034583B200F44016B6F5401F08D121F03D
:1009000070612F4E766826F070662D4F7E6012E083
:1009100000F48016B6F5801F06D1032606FA05F40A
:10092000A14341F0706106E0460D360103FA06F678
:10093000B14341F0706122B1460D360103FA06F66B
:10094000314300F00046B6F1004F02D11C4EF16178
:1009500001E01B4E7160F0BD30B500228B071C0F0B
:100960000F2303FA04F2164B08338C1053F824308B
:100970009343134C08348D1044F8253023468C10D3
:1009800053F824308C07240F00FA04F423430C4C52
:1009900008348D1044F8253030BD0A49DC31086038
:1009A0007047000000080140000C014000100140A9
:1009B0000014014000180140001C014000200140CB
:1009C0000000014000002042DF48006840F00100C4
:1009D000DD49086008464068DC490840DA4948605B
:1009E00008460068DA490840D749086008460068A8
:1009F00020F4802008600846406820F4FE0048602B
:100A00004FF41F0088607047CF49096821F4803196
:100A1000CD4A11601146096821F480211160B0F5BA
:100A2000803F03D0B0F5802F0ED106E0C64909689B
:100A300041F48031C44A116007E0C349096841F4B8
:100A4000A021C14A116000E000BF00BF704710B58F
:100A500001460022002300204A11012A02D1BA4C8B
:100A6000236806E0022A02D1B74C236A01E0B64CA3
:100A7000636A01F01F02012494401C400CB1012064
:100A800000E0002010BD38B50020009000240025B3
:100A900000BF3120FFF7DBFF05460098401C0090A7
:100AA0000098B0F5A06F01D0002DF2D03120FFF7F3
:100AB000CEFF08B1012400E00024204638BD0146E5
:100AC0000020A14A106820F0F80040EAC100106040
:100AD0007047A04908607047024600209A4B58684A
:100AE00020F47C1042EA01031843974B586070478A
:100AF00098490866704701460020934A506820F0E4
:100B000003000843506070478F48406800F00C00B5
:100B10007047014600208C4A506820F0F0000843DE
:100B20005060704701460020874A506820F4E0601A
:100B300008435060704701460020834A506820F403
:100B4000605040EAC1005060704729B17E4A527A35
:100B500002437D4B5A7204E07B4A527A82437A4BBD
:100B60005A7270477B49D8310860704701460020AF
:100B7000754A506820F44040084350607047002197
:100B8000714A20321170704A82F82010012802D078
:100B900004280AD104E001216B4A2032117005E0DB
:100BA0000521694A2032117000E000BF00BF704784
:100BB0006949086070476449096A0143624A1162E1
:100BC0007047654944390860704730B500210022FC
:100BD000002400235C4D6D6805F00C0121B104294F
:100BE00005D0082923D105E05C4D056022E05B4D6E
:100BF00005601FE0544D6D6805F47012524D6D682C
:100C000005F48034022505EB92421CB9544D55433E
:100C100005600BE04C4D6D6805F400351DB1504D7D
:100C20005543056002E04D4D5543056002E04B4DD4
:100C3000056000BF00BF444D6D6805F0F001090973
:100C4000484D6B5C0568DD4045603F4D6D6805F4BF
:100C5000E061090A434D6B5C4568DD4085603A4DB3
:100C60006D6805F46051C90A3E4D6B5C4568DD4016
:100C7000C560354D6D6805F44041890B3A4D6B5C9C
:100C8000C568B5FBF3F5056130BD29B12E4A52693F
:100C900002432D4B5A6104E02B4A526982432A4B8E
:100CA0005A61704729B1284A92690243264B9A61DA
:100CB00004E0254A92698243234B9A61704729B127
:100CC000214AD2690243204BDA6104E01E4AD2690C
:100CD00082431D4BDA61704729B11B4AD268024337
:100CE000194BDA6004E0184AD2688243164BDA6086
:100CF000704729B1144A12690243134B1A6104E088
:100D0000114A12698243104B1A61704712494039E7
:100D1000086070470F49C86470470B49C871704735
:100D20000948406A40F080700749486270470146B0
:100D30000020054A92680A400AB1012000E0002024
:100D40007047014988727047001002400000FFF8A8
:100D5000FFFFF6FE000042428004424200127A0089
:100D600000093D00140000202400002010B50446B6
:100D7000FB48844209D101218803FFF7ADFF002120
:100D80004FF48040FFF7A8FF32E0F648844209D1D3
:100D900001214804FFF7ADFF00214FF40030FFF7B9
:100DA000A8FF25E0F048844209D101218804FFF71B
:100DB000A0FF00214FF48020FFF79BFF18E0EB48D5
:100DC000844209D10121C804FFF793FF00214FF4A9
:100DD0000020FFF78EFF0BE0E548844208D1012197
:100DE0000805FFF786FF00214FF48010FFF781FF11
:100DF00010BD2DE9F04786B005460E460024A246F8
:100E000000BFA1460027B08900B100BF2F462C8A41
:100E10004CF6FF700440F08804432C82AC894EF6F7
:100E2000F3100440B08831890843718908430443B2
:100E3000AC81AC8A4FF6FF400440B0890443AC82D9
:100E400001A8FFF7C2FEC648874202D1DDF810A014
:100E500001E0DDF80CA0A88900F4004040B10AEBE5
:100E6000CA0000EB0A1031684900B0FBF1F807E056
:100E70000AEBCA0000EB0A1031688900B0FBF1F8F8
:100E80006420B8FBF0F004012009642101FB108903
:100E9000A88900F4004040B1322000EBC900B0FB4B
:100EA000F1F000F00700044308E0322000EB0910E5
:100EB0006421B0FBF1F000F00F0004432C8106B078
:100EC000BDE8F0874FF41651016000218180C18098
:100ED00001810C21418100218181704710B50246BA
:100EE0000020108A4FF2FF0318400B884C882343E0
:100EF0008C882343CC8823431843108210BD0021E3
:100F0000018041808180C180704721B1828942F493
:100F10000052828104E082894DF6FF731A4082817B
:100F20007047F0B50346002400260025002040F657
:100F30006A17B94200D100BF1846C1F3421401F04C
:100F40001F06012707FA06F5012C01D10C3004E039
:100F5000022C01D1103000E014301AB107682F4381
:100F6000076002E00768AF430760F0BD1AB1838AEB
:100F70000B43838202E0838A8B4383827047028A19
:100F80004FF6F0731A400282028A0A4302827047C7
:100F900082894FF2FF731A40828182890A438281DB
:100FA000704721B1828942F00202828104E0828985
:100FB0004FF6FD731A4082817047028A4FF6DF7345
:100FC0001A400282028A0A430282704721B1028AD1
:100FD00042F48042028204E0028A4BF6FF731A4018
:100FE00002827047C1F308028280704701468888F8
:100FF000C0F308007047818941F001018181704789
:10100000028BD2B20283028B42EA01220283704732
:10101000028B02F47F420283028B0A4302837047F1
:1010200021B1828A42F02002828204E0828A4FF655
:10103000DF731A408282704721B1828A42F0100227
:10104000828204E0828A4FF6EF731A4082827047F0
:1010500021B1828A42F00802828204E0828A4FF63D
:10106000F7731A408282704721B1828942F40042AC
:10107000828103E08289C2F30E028281704721B12E
:10108000828A42F40062828204E0828A4FF2FF7315
:101090001A4082827047828A4FF6FB731A4082821E
:1010A000828A0A438282704721B1828A42F0020218
:1010B000828204E0828A4FF6FD731A408282704772
:1010C00002460020B1F5007F00D100BF13880B401D
:1010D0000BB1012000E00020704701F40072B2F56E
:1010E000007F00D100BFCA430280704770B502463E
:1010F000002400230025002040F66A16B14200D1EA
:1011000000BFC1F3421501F01F03012606FA03F3E5
:10111000012D02D19689334006E0022D02D1168AB4
:10112000334001E0968A33400C12012606FA04F49B
:101130001688344013B10CB1012000E0002070BDCE
:1011400010B50022002340F66A14A14200D100BF6E
:101150000A1201249440A3B2DC43048010BD0000B5
:10116000003801400044004000480040004C00406E
:1011700000500040002044490860091D0860091D16
:101180000860091D086041483F49143108607047F4
:1011900000213D498279002A3AD00A461268036844
:1011A0009A430B461A600A1D126803689A430B1D86
:1011B0001A60027911440A6803681A430A60324AC5
:1011C0000832126803689A432F4B08331A601A1DBD
:1011D000126803689A432C4B0C331A604279102A28
:1011E0000ED11A1F126803681A43274B08331A607E
:1011F0001A1D126803681A43234B0C331A600DE062
:101200002149427911440A6803681A430A6005E0DB
:10121000027911440A6803689A430A607047002102
:10122000016001710C2141710021817170471649E3
:10123000103109680143144A1032116070470146A9
:101240000020114A143212680A400AB1012000E05D
:10125000002070470C491431086070470146002097
:101260000022094B1B6803EA0102074B14331B6879
:101270000B4013B10AB1012000E000207047024981
:10128000143108607047000000040140FFFF0F00A8
:101290004FF0E020006920F004004FF0E0210861E9
:1012A0000920364908700846007800EB4001C1EB80
:1012B000C0104FF6FF7101EAC00031490880704745
:1012C000002120F07F402D4A127842434FF0E02366
:1012D0005A6100229A6101221A6100BF4FF0E02298
:1012E000116901F001021AB101F48032002AF5D02F
:1012F00000224FF0E0231A619A617047002100B983
:10130000704720F07F401E4A128842434FF0E0238E
:101310005A6100229A6101221A6100BF4FF0E02257
:10132000116901F001021AB101F48032002AF5D0EE
:1013300000224FF0E0231A619A6100BFE0E770B528
:101340000446002600254FF4FA7094FBF0F0C6B274
:101350004FF4FA7094FBF0F100FB114085B205E008
:101360004FF4FA70FFF7CAFF701EC6B2002EF7D115
:1013700015B12846FFF7C2FF70BD0000280000200D
:101380002A00002010B586B0044601210420FFF792
:1013900089FC01218803FFF785FC18208DF81700D0
:1013A0004FF40070ADF8140003208DF8160005A965
:1013B0006B48FFF7BBF904208DF817000002ADF869
:1013C000140003208DF8160005A96548FFF7AEF953
:1013D00001940020ADF810000C20ADF80E000020A4
:1013E000ADF80C00ADF80A00ADF8080001A95D48A1
:1013F000FFF7FFFC01215B48FFF787FD012240F268
:1014000025515848FFF78DFD25208DF8000001205B
:101410008DF8030000208DF8010002208DF80200F5
:101420006846FFF7BAF806B010BD10B586B004469E
:1014300001210420FFF736FC01214804FFF73FFC9F
:1014400018208DF817000420ADF8140003208DF843
:10145000160005A94248FFF769F904208DF8170026
:101460000820ADF8140003208DF8160005A93C48AB
:10147000FFF75CF901940020ADF810000C20ADF8E6
:101480000E000020ADF80C00ADF80A00ADF8080021
:1014900001A93548FFF7ADFC01213348FFF735FDC1
:1014A000012240F225513048FFF73BFD26208DF800
:1014B000000001208DF8030000208DF801008DF858
:1014C00002006846FFF769F806B010BD2DE9F0414B
:1014D00007460C46154600260DE014F8011B384659
:1014E000FFF780FD00BF40213846FFF7E9FD0028E7
:1014F000F9D0701C86B2AE42EFDBBDE8F0810FB4CC
:1015000030B5CBB0054601AC50A800904FF49471B3
:1015100001A8009B4F9A05F01BF8002000900BE0FB
:1015200014F8011B2846FFF75DFD00BF4021284647
:10153000FFF7C6FD0028F9D020780028F0D14BB085
:1015400030BC5DF814FB10B540F225510548FFF79B
:10155000CDFD18B120210348FFF7BFFD10BD0000ED
:1015600000080140003801400044004010B5044626
:1015700084F001024FF400510D48FFF788F90D483F
:10158000047010BD08B501211020FFF78BFB10205F
:101590008DF803004002ADF8000003208DF8020032
:1015A00069460348FFF7C2F80020FFF7DFFF08BDD8
:1015B000001001402C0000201FB501210420FFF77E
:1015C00071FB01210846FFF76DFB48208DF80F00E5
:1015D0000220ADF80C0003208DF80E0003A91E4870
:1015E000FFF7A4F801210020FFF7B6F902200190CF
:1015F00000208DF808000C208DF8090001208DF8DE
:101600000A0001A8FFF7C4FD07208DF800000220A2
:101610008DF801008DF8020001208DF80300684666
:10162000FEF7BBFF1FBD10B50A20FFF767FE0221C2
:101630000948FFF70EF950B908480078012803D18E
:101640000020FFF793FF02E00120FFF78FFF022049
:10165000FFF715FE10BD0000000801402C0000201F
:1016600010B56648006820F00F006449086008461D
:10167000006840F003000860002201215F48FFF786
:1016800006F91420FFF73AFE012211465B48FFF7E6
:10169000FEF81E20FFF714FE10BD10B500245748B9
:1016A000006820F00F00554908600846006840F0C7
:1016B0000800086004E0601CC4B20120FFF700FECF
:1016C00001214E48FFF7C5F808B1642CF3DB642C08
:1016D00001DB012010BD002404E0601CC4B2012025
:1016E000FFF7EEFD01214548FFF7B3F808B9642C78
:1016F000F3DB642C01DB0120ECE70020EAE710B506
:10170000002404E0601CC4B20120FFF7D9FD0121D0
:101710003A48FFF79EF808B1642CF3DB002404E09C
:10172000601CC4B20120FFF7CBFD01213348FFF755
:1017300090F808B9642CF3DB2820FFF7C1FD0121E4
:101740002E48FFF786F808B1012010BD0020FCE705
:1017500070B50024002506E06006040EFFF7CFFFF9
:101760000443681CC5B2082DF6DB204670BD7CB56D
:1017700005460E46FFF774FFFFF78FFFF8B9002408
:1017800005E0FFF7E5FF0DF80400601CC4B2052C6E
:10179000F7DB9DF800009DF8011008449DF8021049
:1017A00008449DF8031008449DF80410884208D1AD
:1017B0009DF8000030709DF80200287001E00120C3
:1017C0007CBD0020FCE708B501210420FFF76AFA80
:1017D0000120ADF8000010208DF8030003208DF8E3
:1017E000020069460548FEF7A1FF01210348FFF703
:1017F0004AF8FFF735FFFFF750FF08BD000801402A
:101800002DE9F04706460F4614461D46DDF820A098
:10181000681E83B2601E82B23946304600F08DFCED
:10182000B8460EE0B14606E0504600F06DFC09F106
:1018300001001FFA80F9A145F6DB08F101001FFA4B
:1018400080F8A845EEDBBDE8F08770B504460D468C
:1018500016462B4622462946204600F06EFC3046AE
:1018600000F052FC70BD2DE9FF4F85B081468A46DD
:101870000020039083460798A0EB09040898A0EB8A
:101880000A06CDF80890CDF804A0002C01DD012750
:1018900005E00CB9002702E04FF0FF376442002E4C
:1018A00002DD4FF0010806E016B94FF0000802E033
:1018B0004FF0FF386642B44201DD254600E0354670
:1018C000002004901EE0019A91B2029A90B2129AFE
:1018D000FFF7BBFF039820440390B3440398A8424A
:1018E00005DD0398401B0390029838440290AB45F5
:1018F00004DDABEB050B0198404401900498401CBB
:1019000080B20490691C04988842DCDB09B0BDE811
:10191000F08F2DE9F84305460E4617469846089C79
:1019200033463A46314628460094FFF79CFF43462B
:101930002A46314628460094FFF795FF43463A462B
:10194000414628460094FFF78EFF43463A4631460B
:1019500038460094FFF787FFBDE8F8832DE9F0478C
:1019600006460F46904699460025444641E07A1BBC
:1019700091B2321B90B24A46FFF767FF7A1B91B2D1
:10198000321990B24A46FFF760FF3A1991B2721BC2
:1019900090B24A46FFF759FF3A1B91B2721B90B2C0
:1019A0004A46FFF752FF7A1991B2321990B24A466D
:1019B000FFF74BFF3A1B91B2721990B24A46FFF7FC
:1019C00044FF3A1991B2721990B24A46FFF73DFFAF
:1019D0007A1991B2321B90B24A46FFF736FF6D1C5E
:1019E00005FB05F004FB040108FB08F0814200DD63
:1019F000641EA542BBDDBDE8F0872DE9FE4F06461B
:101A0000894692469B460D9C00962046E11704EBC2
:101A10005171C910614389B20191052002900025DE
:101A200065E005EB8510F94911F810009AF80010EF
:101A3000884259D105EB8510F44901EB400040780C
:101A40009AF8011088424FD109EB0400401E83B27E
:101A50003019401E82B24946304600F06EFB002726
:101A60003FE04FF0000836E00E9898B905EB85107E
:101A7000E64901EB4000801CC05D012101FA08F13C
:101A8000084018B1584600F03FFB20E00C9800F0E9
:101A90003BFB1CE005EB8510DC4901EB4000801CA2
:101AA000C05D012101FA08F1084020B15A464946BB
:101AB0003046FFF7CAFE701C86B20098301AA0426A
:101AC00005D1009E09F101001FFA80F906E008F136
:101AD000010000F0FF08B8F1080FC5DB00BF781C5B
:101AE000C7B201988742BCDB00BF681C85B2029870
:101AF000854296DBBDE8FE8F2DE9FE4F06468946FE
:101B000092469B460D9C00962046E11704EB5171CE
:101B1000C910614389B201910720029000256DE050
:101B200005EB850000EB4510B94911F810009AF853
:101B3000001088425FD105EB850000EB4510B449E9
:101B400001EB400040789AF80110884253D109EB2C
:101B50000400401E83B23019401E82B2494630460E
:101B600000F0EBFA002743E04FF000083AE00E984F
:101B7000A8B905EB850000EB4510A54901EB400035
:101B8000801CC05D012101FA08F1084018B15846D7
:101B900000F0BAFA22E00C9800F0B6FA1EE005EB6D
:101BA000850000EB45109A4901EB4000801CC05DA8
:101BB000012101FA08F1084020B15A464946304651
:101BC000FFF743FE701C86B20098301AA04205D180
:101BD000009E09F101001FFA80F906E008F10100FA
:101BE00000F0FF08B8F1080FC1DB00BF781CC7B2D6
:101BF00001988742B8DB00BF681C85B20298854215
:101C00008EDBBDE8FE8F2DE9FE4F064689469246E3
:101C10009B460D9C00962046E11704EB5171C910BC
:101C2000614389B2019109200290002565E005EB2E
:101C30000510784911F810009AF80010884259D11F
:101C400005EB0510734901EB400040789AF801104C
:101C500088424FD109EB0400401E83B23019401E68
:101C600082B24946304600F068FA00273FE04FF064
:101C7000000836E00E9898B905EB0510654901EBB0
:101C80004000801CC05D012101FA08F1084018B134
:101C9000584600F039FA20E00C9800F035FA1CE0C4
:101CA00005EB05105B4901EB4000801CC05D012184
:101CB00001FA08F1084020B15A4649463046FFF77C
:101CC000C4FD701C86B20098301AA04205D1009E57
:101CD00009F101001FFA80F906E008F1010000F0A7
:101CE000FF08B8F1080FC5DB00BF781CC7B2019828
:101CF0008742BCDB00BF681C85B20298854296DB38
:101D0000BDE8FE8F2DE9FE4F8046894615469A466E
:101D1000DDE90D470C9E2AE0102C09D153462A46D6
:101D200049464046CDE901470096FFF76CFF19E0B0
:101D3000182C09D153462A4649464046CDE9014769
:101D40000096FFF7D9FE0DE0202C09D153462A4614
:101D500049464046CDE901470096FFF74EFE01E0B7
:101D6000BDE8FE8FAD1C08EB04001FFA80F8287850
:101D70000028D1D100BFF3E72DE9FF4F83B005461E
:101D80008A461746119CAB46204604EBD071C1F33E
:101D900047063046F11706EB5171C910614389B20D
:101DA0000191A7F12000C7B20AEB0400401E83B2E4
:101DB000A819401E82B25146284600F0BEF94FF0E5
:101DC000000954E0102C06D1134800EB071010F85E
:101DD000090002900BE0202C06D1104800EB871080
:101DE00010F80900029002E007B0BDE8F08F4FF054
:101DF000000834E01298B8B9012000FA08F00299FE
:101E0000084068B1069800F07FF924E0C8C20008D5
:101E1000C2C0000890BF0008E0A10008D0A70008D9
:101E2000109800F071F916E0012000FA08F002990C
:101E3000084020B151462846069AFFF706FD681C67
:101E400085B2A5EB0B00B04205D15D460AF1010059
:101E50001FFA80FA06E008F1010000F0FF08B8F16F
:101E6000080FC7DB00BF09F101001FFA80F90198D4
:101E70008145A7DB00BFB7E72DE9FE4F06460F46B9
:101E800014469846DDE90D5ADDF8309010E0CDE9B2
:101E9000015ACDF800902278434639463046FFF784
:101EA0006BFF284605EBD07106EB61018EB2641C16
:101EB00020780028EBD1BDE8FE8F10B50246012046
:101EC00000E050430B1EA1F10104E1B2F9D110BDB5
:101ED0002DE9FF4F85B0074691461D46DDE913A663
:101EE00000200490304606EBD071C1F3470B00246C
:101EF00034E0281B401EC1B20A20FFF7DEFFB9FB09
:101F0000F0F00A21B0FBF1F201FB12080498A0B92D
:101F1000681EA04211DDB8F1000F0CD1002004FBB7
:101F20000B71CDE900A6029088B22022129B06997F
:101F3000FFF722FF10E001200490002008F130019B
:101F4000CAB204FB0B71CDE900A6029088B2129BC5
:101F50000699FFF711FF00BF601CC4B2AC42C8DB9A
:101F600009B0BDE8F08F2DE9FF4F85B007469046D8
:101F70001C46DDE91396304606EBD071C1F3470BE2
:101F80003A49404607F0E6FF039007F0C3FF80B2EE
:101F90000490002531E0601B401EC1B20A20FFF70B
:101FA0008CFF0499B1FBF0F00A21B0FBF1F201FBC8
:101FB000120AA01EA84210D10020A11E01FB0B7125
:101FC000CDE90096029088B22E22129B0699FFF767
:101FD000D3FE681CC5B2601CC4B200200AF13001F7
:101FE000CAB205FB0B71CDE90096029088B2129B34
:101FF0000699FFF7C1FE681CC5B2A542CBDB09B04C
:10200000BDE8F08F2DE9F05F0746884615461E466D
:10201000DDF82890002408EB0600401E83B27819F2
:10202000401E82B24146384600F087F8A24619E0C9
:102030004FF0000B10E019F8140000F05FF80121D8
:1020400001EB440119F8010000F058F8601C84B25B
:102050000BF101001FFA80FBB345ECDB0AF1010034
:102060001FFA80FAAA45E3DBBDE8F09F0000C842F2
:1020700008B501210820FEF715FE4FF4FC60ADF80D
:10208000000010208DF8030003208DF8020069463F
:10209000CA48FEF74BFB4FF4FC61C848FEF7F3FB60
:1020A00008BD70B504464FF40071C448FEF7EDFB5F
:1020B00000251BE02021C148FEF7E7FB04F080006B
:1020C00020B14021BD48FEF7DEFB03E04021BB48C4
:1020D000FEF7DBFB2021B948FEF7D7FB2021B748EC
:1020E000FEF7D1FB6006040E681CC5B2082DE1DBCB
:1020F0004FF40071B148FEF7C6FB70BD10B5044641
:102100002046FFF7CEFF10BD10B504462012FFF7A2
:10211000C8FFE0B2FFF7C5FF10BD10B504464FF48D
:102120008071A648FEF7B1FB2046FFF7BAFF4FF4D7
:102130008071A248FEF7A7FB10BD2DE9F0410446CF
:102140000D4616461F462A20FFF7E7FFA11C88B25E
:10215000FFF7DAFFB11C88B2FFF7D6FF2B20FFF79D
:10216000DCFF691C88B2FFF7CFFF791C88B2FFF74C
:10217000CBFF2C20FFF7D1FFBDE8F08110B5FFF7B2
:1021800077FF80218D48FEF780FB6420FFF7D7F8AA
:1021900080218A48FEF777FB6420FFF7D0F81120F2
:1021A000FFF7BBFF7820FFF7CAF8B120FFF7B5FFB4
:1021B0000120FFF7A3FF2C20FFF7A0FF2D20FFF742
:1021C0009DFFB220FFF7A9FF0120FFF797FF2C200A
:1021D000FFF794FF2D20FFF791FFB320FFF79DFF3E
:1021E0000120FFF78BFF2C20FFF788FF2D20FFF742
:1021F00085FF0120FFF782FF2C20FFF77FFF2D20B6
:10220000FFF77CFFB420FFF788FF0720FFF776FF7A
:10221000C020FFF782FFA220FFF770FF0220FFF728
:102220006DFF8420FFF76AFFC120FFF776FFC5200E
:10223000FFF764FFC220FFF770FF0A20FFF75EFF81
:102240000020FFF75BFFC320FFF767FF8A20FFF73F
:1022500055FF2A20FFF752FFC420FFF75EFF8A20B8
:10226000FFF74CFFEE20FFF749FFC520FFF755FFB2
:102270000E20FFF743FF3620FFF74FFFC020FFF788
:102280003DFFC820FFF73AFFE020FFF746FF0F2091
:10229000FFF734FF1A20FFF731FF0F20FFF72EFF63
:1022A0001820FFF72BFF2F20FFF728FF2820FFF72C
:1022B00025FF2020FFF722FF2220FFF71FFF1F200E
:1022C000FFF71CFF1B20FFF719FF2320FFF716FF66
:1022D0003720FFF713FF0020FFF710FF0720FFF75D
:1022E0000DFF0220FFF70AFF1020FFF707FFE12094
:1022F000FFF713FF0F20FFF701FF1B20FFF7FEFE84
:102300000F20FFF7FBFE1720FFF7F8FE3320FFF743
:10231000F5FE2C20FFF7F2FE2920FFF7EFFE2E201E
:10232000FFF7ECFE3020FFF7E9FE3020FFF7E6FE76
:102330003920FFF7E3FE3F20FFF7E0FE0020FFF724
:10234000DDFE0720FFF7DAFE0320FFF7D7FE10209F
:10235000FFF7D4FE2A20FFF7E0FE0020FFF7CEFEB5
:102360000220FFF7CBFE0020FFF7C8FE8220FFF718
:10237000C5FE2B20FFF7D1FE0020FFF7BFFE032094
:10238000FFF7BCFE0020FFF7B9FE8320FFF7B6FE83
:10239000F020FFF7C2FE0120FFF7B0FEF620FFF7A6
:1023A000BCFE0020FFF7AAFE3A20FFF7B6FE05208C
:1023B000FFF7A4FE2920FFF7B0FE10BD000C01407E
:1023C0000EB510204FF6FF7140F2CF120423CDE975
:1023D000002102908A48027814213720FFF778FD07
:1023E00010204FF6FF7140F2CF120423CDE90021F7
:1023F0000290844802782D213720FFF769FD0020E4
:1024000010214FF6FF72CDE9002102907E4800783E
:1024100008B17EA000E07FA0024640F2CF13462123
:102420000846FFF729FD0EBD0EB54FF6FF70A0233D
:102430001A46002100900846FFF7E2F9002010211B
:102440004FF6FF7240F2CF13CDE90021029072A245
:1024500014210846FFF710FD002010214FF6FF72EF
:1024600040F2CF13CDE9002102906DA22D2114205E
:10247000FFF702FD002010214FF6FF7240F2CF134C
:10248000CDE90021029068A246211420FFF7F4FC58
:10249000002010214FF6FF7240F2CF13CDE900214A
:1024A000029063A214216120FFF7E6FC00201021B6
:1024B0004FF6FF7240F2CF13CDE9002102905DA2EA
:1024C0002D216420FFF7D8FC0EBD08B54FF4A060A5
:1024D000FEF75EF8FEF7DCFE4FF4E130FEF752FF48
:1024E0004FF4E130FEF7A1FFFFF766F8FFF74AF877
:1024F000FFF744FE4FF6FF70A0231A46002100901C
:102500000846FFF77DF94CA14F48FEF7F8FF07E0BA
:102510004EA14D48FEF7F3FF4FF47A70FEF70FFF20
:10252000FFF751F90028F3D14CA14748FEF7E7FF28
:1025300008BD0EB500250024FFF7C7FF02F038F9EB
:102540004FF6FF70A0231A46002100900846FFF7BF
:1025500057F947A13C48FEF7D2FF03E04FF4FA7069
:10256000FEF7CCFE49A14BA002F0C3F80028F5D13C
:1025700010214FF6FF7240F2CF13CDE900210290F7
:102580004EA232210A20FFF777FC07E03FA141A0CD
:1025900002F0AFF84FF4FA70FEF7B0FE00F013FA55
:1025A0000028F3D110214FF6FF7240F2CF13CDE98E
:1025B0000021029045A250210A20FFF75DFC00F0A7
:1025C0009EFCFFF731FF1AE0681C80B20546142814
:1025D00008DB0C490A48FFF7CAF800F02BFC00257D
:1025E00002F068F8002002F0C1F8044614B1204659
:1025F00000F0B0FCFFF7E4FE0A20FEF7A0FEE3E7E0
:102600002D0000202E0000202C0000204F4E202006
:10261000000000004F46460054656D700000000049
:1026200048756D69000000004C4544200000000022
:1026300043000000250000004C434420496E6974AB
:10264000204F4B2E0D0A0000003801404448543101
:1026500031204572726F72200D0A000020486172AD
:10266000647761726520696E6974204F4B0D0A00B2
:10267000436F6E6E656374204D51545473205365DF
:10268000727665722E2E2E0D0A000000434F4E4EBC
:102690004543540041542B43495053544152543DF7
:1026A00022544350222C223132372E302E302E31FC
:1026B000222C313838330D0A000000004465766959
:1026C0006365204C6F67696E2E2E2E004C6F676914
:1026D0006E2053756363657373210000F0B58BB092
:1026E000054600260024284604F09EFAC7B20DB124
:1026F0001C2F02DA01200BB0F0BD06E0A85D01A995
:1027000088550020A855701CC6B2BE42F6DB0020DA
:1027100001A988550026002455E001A8805D2B28DA
:1027200010D008DC202814D023282ED0252825D02E
:1027300026283FD130E02F2812D03D2833D03F2823
:1027400038D114E02819FEA104F0D8FAE01CC4B274
:1027500036E02819FBA104F0D1FAE01CC4B22FE046
:102760002819F9A104F0CAFAE01CC4B228E028191B
:10277000F6A104F0C3FAE01CC4B221E02819F4A1C8
:1027800004F0BCFAE01CC4B21AE02819F1A104F06C
:10279000B5FAE01CC4B213E02819EFA104F0AEFAB8
:1027A000E01CC4B20CE02819ECA104F0A7FAE01C6C
:1027B000C4B205E001A8805D2855601CC4B200BF0A
:1027C00000BF701CC6B2BE42A7DB0020285500BF68
:1027D00091E72DE9F04FC9B005460C4616461F4655
:1027E0000DF5A47898E8000F0020489055B14CB141
:1027F000DB48864206D32FB1B9F1000F02D0BAF1FF
:10280000780F03DA012049B0BDE8F08F402118A805
:1028100004F019FB384604F007FA05903B4648AA35
:102820004021009018A800F089FF482106A804F074
:102830000AFBBBF1000F09D0CAA03346CBA2482146
:102840008DE8310006A803F0B3FE09E0C5A03346C9
:10285000CCA248218DE81101039506A803F0A8FE3B
:10286000402128A804F0EFFA06A804F0DDF905904D
:1028700018A804F0D9F9049028A8009006AA18A86E
:10288000DDE9041300F014FE00204890402138A830
:1028900004F0D9FA28A804F0C7F9059028AB48AA93
:1028A0004021009038A800F0A9FE38A8FFF716FFD5
:1028B000BBF1000F0CD038A8AAA12B46B9A2CDE9D4
:1028C0000046CDE902105146484603F071FE0CE087
:1028D00038A8A4A12B46C14ACDE901860094CDE9D0
:1028E00003105146484603F063FE00208BE72DE9B4
:1028F000F041ACB0012710250026002405F1F000BE
:1029000003F0C2FD06461EB938462CB0BDE8F08182
:1029100003E04FF4FA70FEF7F1FCB1A1B2A001F0B0
:10292000E8FE0028F5D10120902108AA0023CDE976
:102930000032CDE90210B6A3B74AB8A1B9A0FFF79B
:1029400048FFB6A11020CDE9000105F1F00108AB68
:10295000B74A304603F02CFE304604F065F91FFA02
:1029600080F84146304601F0EAFEFA2001F0FEFE12
:10297000044624B1AFA1204604F020F90446CCB1AE
:1029800000200390AE4803A904ABAE4ACDE9001085
:10299000AD49204603F0C2FF04280AD1A848039994
:1029A00004ABA84ACDE90010A8A1B048FEF7A7FDE6
:1029B000002700BF304603F096FDADA1ADA001F0A9
:1029C00098FE3846A1E730B5B3B000202F90309084
:1029D000319032900125A02107AA90A3CDE90032C1
:1029E000CDE902108AA38C4A8CA18EA0FFF7F1FEDC
:1029F00007A88AA389A2A3A100909C48FEF77FFDA7
:102A00002FA8002102910391CDE90410084601216D
:102A10000B0282A2CDE9001007A980A000F0EFFF11
:102A2000002842D1309A91B22F9801F088FEFA2006
:102A300001F09CFE0446002C33D0204600F0AAFF93
:102A400002282ED1204601F03FF9062823D2DFE8E4
:102A500000F003090E13181D96A18448FEF74FFDE0
:102A600000251DE098A18148FEF749FD18E09DA1D1
:102A70007E48FEF744FD13E0A3A17C48FEF73FFD2E
:102A80000EE0A9A17948FEF73AFD09E0AFA1774829
:102A9000FEF735FD04E0B8A17448FEF730FD00BF35
:102AA00000BF2FA800F02EFF03E0BAA16F48FEF789
:102AB00026FD284633B030BD10B58CB00446302119
:102AC000684604F0C0F9BCA1204604F089F8302122
:102AD000684604F0B8F9BE480278BEA1684603F023
:102AE00051FD6946204604F009F93021684604F09A
:102AF000AAF9BE480278BEA1684603F043FD6946C4
:102B0000204604F0FBF83021684604F09CF9BE48EA
:102B1000007808B1BDA000E0BEA00246BFA1684693
:102B200003F030FD6946204604F0E8F8C0A12046D5
:102B300004F0E4F8204604F077F8C0B20CB010BD01
:102B4000253242002532300025324600253346002A
:102B50002532350025323300253236002533440036
:102B60009554415D736861310000000025640A25B9
:102B7000730A70726F64756374732F25730A2573FB
:102B80000000000025640A25730A70726F64756383
:102B900074732F25732F646576696365732F2573AE
:102BA0000A25730076657273696F6E3D2573267210
:102BB00065733D70726F64756374732525324625A5
:102BC000732665743D2564266D6574686F643D25C4
:102BD00073267369676E3D2573000000D0C7000837
:102BE000434F4E4E4543540041542B434950535498
:102BF0004152543D22544350222C223138332E323C
:102C000033302E34302E3333222C38300D0A00006E
:102C1000313233343536000000CF9D7473746D3318
:102C200032000000323031382D31302D3331000088
:102C300018C800086465766963655F696400000010
:102C4000540000204400002084C7000863726561BE
:102C50007465206465766963653A2025732C2025A8
:102C6000732C2025642C2025730D0A0000380140A8
:102C70004F4B000041542B434950434C4F53450D9B
:102C80000A0000004F6E654E45545F4465764C69FE
:102C90006E6B0D0A4E414D453A2025732C0950525A
:102CA0004F49443A2025732C094B45593A25730D59
:102CB0000A000000546970733A09C1ACBDD3B3C9AE
:102CC000B9A60D0A000000005741524E3A09C1ACA6
:102CD000BDD3CAA7B0DCA3BAD0ADD2E9B4EDCEF370
:102CE0000D0A00005741524E3A09C1ACBDD3CAA7E4
:102CF000B0DCA3BAB7C7B7A8B5C4636C69656E7416
:102D000069640D0A000000005741524E3A09C1ACF7
:102D1000BDD3CAA7B0DCA3BAB7FECEF1C6F7CAA727
:102D2000B0DC0D0A000000005741524E3A09C1AC18
:102D3000BDD3CAA7B0DCA3BAD3C3BBA7C3FBBBF246
:102D4000C3DCC2EBB4EDCEF30D0A00005741524E86
:102D50003A09C1ACBDD3CAA7B0DCA3BAB7C7B7A8FC
:102D6000C1B4BDD328B1C8C8E7746F6B656EB7C76F
:102D7000B7A8290D0A0000004552523A09C1ACBD5E
:102D8000D3CAA7B0DCA3BACEB4D6AAB4EDCEF30DA5
:102D90000A0000005741524E3A094D5154545F50B9
:102DA00061636B6574436F6E6E6563742046616921
:102DB0006C65640D0A0000007B226964223A2231AE
:102DC0003233222C22706172616D73223A7B0000D3
:102DD0002D0000202274656D70223A7B2276616C92
:102DE0007565223A25647D2C000000002E0000202D
:102DF0002268756D69223A7B2276616C7565223A8C
:102E000025647D2C000000002C0000207472756584
:102E10000000000066616C7365000000226C656450
:102E2000223A7B2276616C7565223A25737D00001B
:102E30007D7D000030B5C5B00020419042904390A8
:102E40004490002400254FF4807101A803F0FBFF9B
:102E500001A8FFF731FE0446002C23D041A800232F
:102E60002246AFF248210090AFF2502001F01DF849
:102E7000A0B908E001A8415D429A501C42904198D7
:102E80008154681C05B2A542F4DB429A91B2419884
:102E900001F055FC41A800F035FD03E06DA1754837
:102EA000FEF72DFB45B030BD70B588B005460C4629
:102EB0000020049005900690079023462A466EA1B4
:102EC0006C48FEF71CFB204603F0AEFE064604A845
:102ED0000121002200923346CDE9012103902246D0
:102EE00029460A2000F0FFFE38B9059A91B20498ED
:102EF00001F025FC04A800F005FD08B070BD00B588
:102F000095B00020119012901390149003A8029095
:102F1000AFF2F820AFF2FC235FA23821009003A8A3
:102F200003F046FB03AA64A15248FEF7E8FA11A891
:102F3000012302AA00210090142001F0C0F838B942
:102F4000129A91B2119801F0FAFB11A800F0DAFC84
:102F500015B000BD2DE9F04F89B00746002008905C
:102F60000790069005900490002500268046814633
:102F7000384600F00FFD0546032D04D0042D3BD04C
:102F8000092D50D141E0524804A905AA08ABCDE96A
:102F90000021029006AA07A9384601F0C8F90646A2
:102FA000002E28D18246BDF814000899CDE9001002
:102FB000BDF8183047A12F48079AFEF7A0FA0898E5
:102FC00002F086FB834652A1584602F087FF039029
:102FD00051A1039802F082FF044644B1E068012841
:102FE00002D1FEF7C3FA02E00020FEF7BFFA58460E
:102FF00001F06CFD00BF00BF384601F098FA18B927
:1030000046A11C48FEF77BFA10E0384601F0D6F8DE
:1030100020B94AA11748FEF772FA03E04EA11548FD
:10302000FEF76DFA02E04FF0FF3600BF00BF01F07F
:1030300041FB701C10B909B0BDE8F08F0F2D01D015
:10304000032D05D1079803F04EFA089803F04BFAC8
:1030500000BFF0E75741524E3A094544505F4E6574
:1030600077427566666572204661696C65640D0A13
:1030700000000000003801405075626C69736820E0
:10308000546F7069633A2025732C204D73673A2082
:1030900025730D0A00000000247379732F25732F08
:1030A00025732F7468696E672F70726F7065727404
:1030B000792F7365740000005375627363726962DF
:1030C0006520546F7069633A2025730D0A00000073
:1030D00030000020746F7069633A2025732C2074CF
:1030E0006F7069635F6C656E3A2025642C20706197
:1030F000796C6F61643A2025732C207061796C6F54
:1031000061645F6C656E3A2025640D0A0000000062
:10311000706172616D7300006C6564005469707356
:103120003A094D515454205075626C6973682053AC
:10313000656E64204F4B0D0A0000000054697073E7
:103140003A094D5154542053756273637269626534
:10315000204F4B0D0A000000546970733A094D511D
:1031600054542053756273637269626520457272AC
:103170000D0A0000F0B50446142C06DA01EA020537
:1031800023EA010685EA060019E0282C04DA81EA20
:10319000020787EA030012E03C2C0ADA01EA020582
:1031A00001EA030787EA050602EA030787EA060041
:1031B00005E0502C03DA81EA020787EA0300F0BD3C
:1031C0000146142901DAF7480AE0282901DAF6480D
:1031D00006E03C2901DAF54802E0502900DAF4481B
:1031E0007047F0B5024601209040441EE54301EAD5
:1031F000050020FA02F601EA0400C2F1200C00FAF0
:103200000CF746EA07031846F0BDF0B50246C2F1D6
:10321000200C012000FA0CF0441EE54301EA0400F2
:1032200000FA02F601EA0500C2F1200C20FA0CF7C0
:1032300046EA07031846F0BD2DE9F04FDDB007461A
:103240008A4615460AF1080909F101094FEACA0040
:103250005B9048464FEAE97109EB91618E1148464F
:103260004FEAE97109EB91618911A9EB81115C9138
:103270005C98002800DD761C5C98C0F14000814419
:10328000D04604E0002007F8080008F10108B8EB78
:10329000861FF7DB802007F80A000121C1EB8611A9
:1032A0005B9878545B98C0F307200221C1EB86112C
:1032B00078545B98C0F307400321C1EB8611785422
:1032C0005B98000E0421C1EB86117854B9485690E2
:1032D000B9485790B748C0435890B748C043599031
:1032E000B6485A904FF00008A5E0002452E0102C98
:1032F00032D24FEA881000EB8400385C000601A946
:1033000041F824004FEA881000EB8400401C385C30
:1033100051F824104FF4803202FB001001A941F84B
:1033200024004FEA881000EB8400801C385C51F8C0
:103330002410121202FB001001A941F824004FEAE8
:10334000881000EB8400C01C385C51F8241008443D
:1033500001A941F824001CE0502C1AD2E01E01AA59
:1033600052F82000A4F1080201AB53F8222050408B
:10337000A4F10E0253F822205040A4F1100253F899
:10338000222080EA02010120FFF73FFF01A941F856
:103390002400641C502CAAD35698559057985490EA
:1033A00058985390599852905A98519000242AE076
:1033B00005205599FFF729FF83462046529B539AD3
:1033C0005499FFF7D7FE584400905199009808444B
:1033D00000902046FFF7F4FE00990844009001A8F1
:1033E00050F8241000980844009052985190539837
:1033F00052901E205499FFF708FF5390559854900F
:1034000000985590641C502CD2D356995598084476
:10341000569057995498084457905899539808448F
:10342000589059995298084459905A99519808447B
:103430005A9008F10108B045FFF657AF5698E8706A
:103440005698000AA8705698000C68705698000E9E
:1034500028705798E8715798000AA8715798000C7F
:1034600068715798000E28715898E8725898000AA9
:10347000A8725898000C68725898000E28725998D3
:10348000E8735998000AA8735998000C6873599802
:10349000000E28735A98E8745A98000AA8745A982B
:1034A000000C68745A98000E28745DB0BDE8F08F67
:1034B0002DE9F04FADF5B36D07460E46924698469E
:1034C000DDF8BC9540254FF0360B5C20CDF8940517
:1034D000002404E000200DF254510855641C402CD7
:1034E000F8DBAE421DD0AE420FDD4A4631463846CB
:1034F000FFF7A2FE002405E019F804000DF2545174
:103500000855641C142CF7DB14E0AE4212DA0024D8
:1035100004E0385D0DF254510855641CB442F8DBE8
:1035200008E0002404E0385D0DF254510855641C95
:10353000AC42F8DB002408E00DF25450005D80EA54
:103540000B000DF214510855641C402CF4DB0024D0
:1035500005E00DF21450005D15A90855641C402CBF
:10356000F7DB002406E01AF8041015AA04F1400065
:103570001154641C4445F6DB08EB05014A4615A8C6
:10358000FFF75AFE002409E00DF25450005DDDF80B
:10359000941548400DF2D4410855641C402CF3DBCF
:1035A000002413E09979825AA1EBD96EDCBC1B8F01
:1035B000D6C162CA0123456789ABCDEFF0E1D2C322
:1035C0000DF2D440005D0DF80400641C402CF7DBC4
:1035D000002406E019F8041004F140000DF8001072
:1035E000641C142CF6DB4A4605F114016846FFF70B
:1035F00023FE0DF5B36DBDE8F08F00002DE9F04F0F
:1036000007468946099C00250026AC46A846AA46DE
:1036100000211CB900201060BDE8F08F0320B4FB2E
:10362000F0F04FF0030BB4FBFBFE0BFB1E4BBBF1AA
:10363000000F02D04FF0010B01E04FF0000B00EB48
:103640000B06B6F1804F05D34FF0FF3010606FF0DE
:103650002900E1E7B600701C814500D327B9701C32
:1036600010606FF02900D7E70320B4FBF0F000EB07
:1036700040060025394629E013F801CB13F8018BE9
:1036800013F801AB87484FEA9C0B10F80B0001F8C8
:10369000010B4FEA0C1000EB281000F03F00DFF8A0
:1036A00004B21BF8000001F8010B4FEA880000EBA0
:1036B000AA1000F03F001BF8000001F8010B0AF00F
:1036C0003F001BF8000001F8010BED1CB542D3D3FD
:1036D000A5422DD213F801CB681CA04202D213F8E8
:1036E000010B00E0002080466E48CCF3850B10F8FB
:1036F0000B0001F8010B4FEA0C1000EB281000F052
:103700003F00DFF8A0B11BF8000001F8010B681CB6
:10371000A04207D23F2000EA88001BF8000001F811
:10372000010B02E03D2001F8010B3D2001F8010BE7
:10373000C81B10600020087000BF6DE72DE9F0473E
:10374000074689469046DDF820C00021002200246B
:1037500000260025002004460246014645E00026DA
:1037600001E0491C761C614502D2585C2028F8D043
:10377000614500D13BE0ACEB0100022807D3585C67
:103780000D2804D1481C185C0A2800D12CE0585C94
:103790000A2800D128E01EB16FF02B00BDE8F087A9
:1037A000585C3D2806D1601C0446022802D96FF0FF
:1037B0002B00F3E7585C7F2806DC585CDFF8E8A0B4
:1037C0001AF800007F2802D16FF02B00E6E7585C62
:1037D000DFF8D4A01AF80000402803DA14B16FF023
:1037E0002B00DBE7521C00BF491C6145B7D300BF6B
:1037F0001AB90020C8F80000D0E7D00800EB40005C
:103800004FEA400A02F0070000EB40004000C01DF4
:103810000AEBD002121B0FB1914504D2C8F8002068
:103820006FF02900BAE703240020064602463D4611
:1038300031E018780D2805D018780A2802D01878B9
:10384000202800D125E01878DFF85CA01AF80000E5
:10385000402801D1012000E00020241A1878DFF868
:1038600048A01AF8000066F39F100646501C024656
:1038700004280DD1002214B1300C05F8010B012CE5
:1038800002D9300A05F8010B022C01D905F8016BA9
:1038900000BF491E5B1C0029CBD1E81BC8F8000003
:1038A00000207BE752C5000892C5000870B50446A9
:1038B0000E460025206898B901202073304602F09A
:1038C000E3FD20602068E0B100206060A66003E0B6
:1038D0000020216848556D1CA068A842F8D810E067
:1038E0000220207303E00020216848556D1CA06869
:1038F000A842F8D800206060A068B04201D2002041
:10390000206070BD10B50446207B012802D12068DC
:1039100002F0E9FD002020606060A060207310BD0F
:103920000246002301230DE002F07F000870D20957
:103930002AB1087840F080000870491C01E0184660
:1039400070475B1C042BEFDD4FF0FF30F8E7F0B55C
:1039500004460D462646012300201060002114E095
:10396000775C07F07F07106807FB03001060705C4E
:1039700000F0800008B9481CF0BDDB01B3F5001F62
:1039800002D36FF00100F7E7491CA942E8DB4FF0D2
:10399000FF30F1E7F8B50446FF2720780511012D27
:1039A00001DB0E2D01DD3846F8BD032D24D10020AA
:1039B00000906A460421601CFFF7C9FF2044461CA2
:1039C0000098022803D3207800F0010008B1FF20FE
:1039D000EAE77078317840EA0120801C009988423B
:1039E00001D9FF20E0E7F8A1B01C03F0E7F808B127
:1039F0000F2700E0032700E02F463846D4E72DE9E3
:103A0000FF4F83B082468B469146159C00250020CF
:103A100002900F270190484603F006F90FFA80F84C
:103A2000B9F1000F03D1012007B0BDE8F08F08F114
:103A30000200384487B2109808B145F00205129888
:103A400078B145F00405129803F0EEF8C0B2029088
:103A5000139803F0E9F801460298001D0844384421
:103A600087B2119820B1012804D0022808D104E0BF
:103A700000BF07E045F00C0504E045F0140501E047
:103A80000220D1E700BF149808B145F02405BAF12F
:103A9000000F02D0BBF1000F01D10320C4E745F0B5
:103AA000C005504603F0C0F80646584603F0BCF87F
:103AB0003044001D384487B239462046FFF7F6FEF1
:103AC000206808B90420AFE73946206803F099F967
:103AD00010216268501C606020688154D4E9002382
:103AE000D118781FFFF71CFF00B201900198002841
:103AF00004DA2046FFF706FF052095E76168019884
:103B00000844606000216268501C60602068815435
:103B100004216268501C6060206881544D216268F5
:103B2000501C60602068815451216268501C6060A4
:103B30002068815454216268501C60602068815460
:103B40006268501C60602068815404216268501CC7
:103B50006060206881546168481C6060206845543A
:103B60000698010A6268501C6060206881540698BB
:103B7000C1B26268501C606020688154C8F307219C
:103B80006268501C6060206881546268501C6060EC
:103B9000206800F80280D4E900128818424649469D
:103BA00002F0FAFF60684044606005F00400B8B3BA
:103BB0000026139808B986A01390129803F034F8E1
:103BC00086B2310A6268501C606020688154626865
:103BD000501C606020688654D4E900128818324670
:103BE000129902F0D9FF606830446060139803F0C6
:103BF0001BF886B2310A6268501C606020688154EC
:103C00006268501C606020688654D4E900128818ED
:103C10003246139902F0C0FF60683044606000BF14
:103C200005F08000C8B1504602F0FEFF86B2310AAE
:103C30006268501C6060206881546268501C60603B
:103C400020688654D4E9001288183246514602F0A2
:103C5000A3FF60683044606000BF05F04000C8B159
:103C6000584602F0E1FF86B2310A6268501C60607B
:103C7000206881546268501C606020688654D4E9D2
:103C8000001288183246594602F086FF60683044B8
:103C9000606000BF0020C7E610B504460221204640
:103CA000FFF704FE206808B9012010BDE02162681A
:103CB000501C60602068815400216268501C606064
:103CC000206881540020F0E701464878022801D09E
:103CD00001207047887810B18878012801D1C87810
:103CE000F7E7FF20F5E72DE9FF4F83B0834617463E
:103CF0009946139C002500260020029001908046E2
:103D0000BBF1000F03D1012007B0BDE8F08F002602
:103D10000AE00498805D232803D00498805D2B2856
:103D200001D10220F0E7761C0498805D0028F0D1D4
:103D300048F03008119808B148F0010806EB090076
:103D4000851C109820B1012804D002280AD105E072
:103D500000BF09E048F00208AD1C05E048F0040887
:103D6000AD1C01E00320CFE700BF67B3387802281D
:103D700021D14FF0000A00BF50460AF1010A385C19
:103D80007D28F9D1AAF1030A0AF1070002900298EE
:103D9000A9EB000AE81CA0EB0A012046FFF786FD0C
:103DA000206808B90420AFE7EA1CA2EB0A012068EA
:103DB00003F027F81FE0691D2046FFF777FD206814
:103DC00040B90420A0E70AE0246372657100000096
:103DD00000000000691D206803F013F80BE0691D66
:103DE0002046FFF763FD206808B904208CE7691DB1
:103DF000206803F006F86168481C6060206800F8DD
:103E00000180D4E9000281182846FFF789FD01905E
:103E10000198002804DA2046FFF774FD052073E7B7
:103E20006168019808446060C6F307216268501C0D
:103E30006060206881546268501C6060206886540D
:103E4000D4E9001288183246049902F0A5FE606891
:103E500030446060109860B14FEA1B216268501CCA
:103E60006060206881546268501C6060206800F8BF
:103E700002B0C7B1387802280BD1D4E900128818F3
:103E80003946029A02F046FF616802980844606071
:103E900009E0D4E9001288184A46394602F03AFF90
:103EA00060684844606000202EE72DE9F04190B042
:103EB00004460D4616469846169F2346F7A2302123
:103EC00004A8009502F074FB01200021CDE9000157
:103ED00033460A4604A9CDE902070A20FFF703FF8B
:103EE00018B1012010B0BDE8F0810020FAE72DE9FB
:103EF000F04F85B080460D46914601200490002782
:103F0000002600244FF0000A404602F08DFE00F12A
:103F10000D0B584602F0B8FA07461FB9049805B0D1
:103F2000BDE8F08F4246E5A1384602F02BFB38464B
:103F300002F07AFEC6B2F01D00EB050AAAEB0500FE
:103F400002F0A2FA044624B9384602F0CCFA0498EA
:103F5000E5E70220207000206070A67032463946E6
:103F6000E01C02F0D7FE290EF01C2154C5F30741D6
:103F7000301D2154C5F30721701D2154B01D255457
:103F800001200021CDE9000153462246CFA1CDE911
:103F900002090A20FFF7A7FE08B90020049038465E
:103FA00002F0A1FA204602F09EFA0498B7E72DE944
:103FB000F84380460C4615461E462F2108F10600A0
:103FC00002F0E0FD07460020009017B90120BDE88F
:103FD000F8837F1C6A46042108F10100FFF7B7FC53
:103FE000252002F051FA2060206808B90220EEE78F
:103FF0002521206802F005FF24223946206802F0BE
:1040000089FE243700982C3830803188481C02F013
:104010003BFA2860286820B9206802F064FA03207F
:10402000D5E73288511C286802F0EBFE3288394609
:10403000286802F06FFE0020C9E72DE9FF5F074600
:104040000D469046384602F0EFFD86B2284602F053
:10405000EBFD1FFA80FA4FF00009F01D02F014FA90
:1040600004461CB9012004B0BDE8F09FF11D2046B4
:1040700002F0C7FE96A0016821608088A0803246C9
:104080003946204602F088FD284602F0CDFD8346E1
:104090000120002100915B462A46CDE902080191EA
:1040A00021460A20FFF71FFE10B94FF0000901E07A
:1040B0004FF00109204602F016FA4846D3E72DE9F1
:1040C000FF5F8046174699460E9C0026B246B346CF
:1040D0000025B8F1000F03D1012004B0BDE8F09F26
:1040E0000BE057F8250008B90220F6E757F825003D
:1040F00002F09AFD0644681CC5B24D45F1DB09EBA0
:104100004900801C00EB060A0AF105012046FFF772
:10411000CDFB206808B90320DFE782216268501CCC
:10412000606020688154D4E9000281185046FFF78E
:10413000F7FB0FFA80FBBBF1000F04DA2046FFF714
:10414000E1FB0420C9E76068584460604FEA182129
:104150006268501C6060206881546268501C606016
:10416000206800F80280002524E057F8250002F0BE
:104170005BFD0646C6F307216268501C606020683C
:1041800081546268501C606020688654D4E9002322
:10419000D01857F82510324602F0FEFC6068304413
:1041A00060600198C1B26268501C606020688154F0
:1041B000681CC5B24D45D8DB00208EE70146FF20C4
:1041C0008A78A2B9CA78142A11D10A7932B1012A9F
:1041D00005D0022A04D0802A06D103E000BF00BF28
:1041E000002003E0012001E0022000BF00BF704773
:1041F0002DE9F05F80460F4691461C460026B246E8
:10420000B3460025B8F1000F02D10120BDE8F09FB0
:104210000BE057F8250008B90220F7E757F825000A
:1042200002F002FD0644681CC5B24D45F1DB0220D8
:1042300000EB490000EB060A0AF105012046FFF7F2
:1042400035FB206808B90320E0E7A2216268501C12
:10425000606020688154D4E9000281185046FFF75D
:104260005FFB0FFA80FBBBF1000F04DA2046FFF77B
:1042700049FB0420CAE76068584460604FEA18218F
:104280006268501C6060206881546268501C6060E5
:10429000206800F8028000253CE000002473797358
:1042A0002F25732F25732F7468696E672F70726FB7
:1042B00070657274792F706F737400007B22647361
:1042C0005F6964223A222573227D00002464700015
:1042D00024637273702F000057F8250002F0A4FCCD
:1042E0000646C6F307216268501C6060206881544E
:1042F0006268501C606020688654D4E90023D0189E
:1043000057F82510324602F047FC60683044606080
:10431000681CC5B24D45DFDB002077E70146012070
:104320008A781AB9CA781E2A00D1002070472DE970
:10433000FC5F81460D4614461E46DDE90C8B99F85C
:10434000000000F00F0A002001900AF00800009021
:10435000CAF341008BF8000001AA042109F1010011
:10436000FFF7F5FA4844471C0198022802D30AF0E7
:10437000010010B1FF20BDE8FC9F7878397840EA51
:10438000012020802088801C0199884201D9FF20CB
:10439000F1E7AFF2CC51B81C02F010FC08B10F20CD
:1043A000E9E79BF8000020B101283DD0022877D131
:1043B0003BE0009808B1FF20DDE72188481C02F0AF
:1043C00063F82860286808B9FF20D4E72288511CC8
:1043D000286802F016FD2288B91C286802F09AFCB1
:1043E0000198801E2188401AA8F80000B8F8001033
:1043F000481C02F049F83060306820B9286802F0A3
:1044000072F8FF20B7E7B8F80020511C306802F0BE
:10441000F8FCB8F80020B4F800C0BB1C0CEB03019A
:10442000306802F077FC4FE000BF2088801C0199C3
:10443000884201D9FF209EE72088C01C395C208873
:10444000801C385C41EA00210E9801800E9808B962
:10445000FF2090E72188481C02F016F828602868A1
:1044600008B9FF2087E72288511C286802F0C9FCA0
:104470002288B91C286802F04DFC0198001F218891
:10448000401AA8F80000B8F80010481C01F0FCFF22
:104490003060306828B9286802F025F8FF206AE704
:1044A00010E0B8F80020511C306802F0AAFCB8F8FF
:1044B0000020B4F800C03B1D0CEB0301306802F093
:1044C00029FC01E0FF2056E700BF2B21284602F01F
:1044D00059FB20B92321284602F054FB08B1FF20E4
:1044E00049E7002047E770B505460C460421204601
:1044F000FFF7DCF9206808B9012070BD402162682F
:10450000501C60602068815402216268501C606009
:104510002068815429126268501C606020688154B0
:104520006268501C6060206885540020E5E7014601
:104530004878022801D001207047887820B9C878CF
:104540000A2801D10020F7E70120F5E770B50546FC
:104550000C4604212046FFF7A9F9206808B901207C
:1045600070BD50216268501C606020688154022137
:104570006268501C60602068815429126268501C77
:104580006060206881546268501C606020688554B7
:104590000020E5E701464878022801D00120704755
:1045A000887820B9C8780A2801D10020F7E70120CF
:1045B000F5E770B505460C4604212046FFF776F96D
:1045C000206808B9012070BD62216268501C6060DB
:1045D0002068815402216268501C60602068815408
:1045E00029126268501C6060206881546268501C07
:1045F0006060206885540020E5E702465078022874
:1046000001D0012070479078B0EB112F05D1D07800
:10461000CBB2984201D10020F4E70120F2E770B557
:1046200005460C4604212046FFF740F9206808B9EA
:10463000012070BD70216268501C60602068815448
:1046400002216268501C60602068815429126268EF
:10465000501C6060206881546268501C6060206853
:1046600085540020E5E701464878022801D0012062
:104670007047887820B9C8780A2801D10020F7E768
:104680000120F5E710B5044602212046FFF70EF998
:10469000206808B9012010BDC0216268501C60600C
:1046A0002068815400216268501C60602068815439
:1046B0000020F0E710B54FF40071924802F0A1FB22
:1046C00000209149088010BD8F48008808B901205A
:1046D00070478D4800888D490988884203D10020A1
:1046E00089490880F4E788480088884908800120C3
:1046F000EEE72DE9F04104460D46C826204602F0BB
:1047000093FA87B23A4621468148FCF7DFFE0FE074
:10471000FFF7DAFF48B929467A4802F04FFA20B18C
:10472000FFF7C8FF0020BDE8F0810A20FCF7E6FD96
:10473000301EA6F10101CEB2EAD10120F3E730B577
:1047400089B004460D46FFF7B5FF2A4671A101A8BE
:1047500001F018FF73A101A8FFF7CBFF20B92A468B
:1047600021466B48FCF7B2FE09B030BD70B5054676
:10477000002400BFFFF7A8FF80B96BA1614802F0D9
:104780001DFA044654B13A21204602F0FBF90446D2
:1047900014B1641C204670BD0020FCE70520FCF726
:1047A000ADFD281EA5F101018DB2E3D100BFF2E7F6
:1047B0000EB5FFF77FFF5EA15F48FCF7A0FE00206B
:1047C00010214FF6FF7240F2CF13CDE90021029085
:1047D0005AA20F210A20FDF74FFB03E04FF4FA70B5
:1047E000FCF78CFD57A158A0FFF783FF0028F5D1F7
:1047F00057A15148FCF783FE002010214FF6FF72AD
:1048000040F2CF13CDE90021029054A228210A20C2
:10481000FDF732FB03E04FF4FA70FCF76FFD49A19E
:1048200051A0FFF766FF0028F5D153A14248FCF7DD
:1048300066FE002010214FF6FF7240F2CF13CDE943
:104840000021029050A241210A20FDF715FB03E050
:104850004FF4FA70FCF752FD3AA14FA0FFF749FF61
:104860000028F5D150A13448FCF749FE0020102162
:104870004FF6FF7240F2CF13CDE9002102904DA216
:104880005A210A20FDF7F8FA03E04FF4FA70FCF71A
:1048900035FD4BA14CA0FFF72CFF0028F5D151A10D
:1048A0002548FCF72CFE002010214FF6FF7240F245
:1048B000CF13CDE90021029050A273210A20FDF709
:1048C000DBFA0EBD10B540F225511148FCF70EFC85
:1048D000B8B10D480088B0F5007F02D300200A4926
:1048E00008800B48001D0088C1B207480288008874
:1048F000401C054B18800348815420210448FCF7D4
:10490000ECFB10BD840000203200002034000020A9
:104910000044004041542B43495053454E443D25EB
:10492000640D0A003E0000004950442C00000000C5
:10493000312E2041540D0A0000380140312E4154DF
:104940002E2E2E004F4B000041540D0A0000000097
:10495000322E2043574D4F44450D0A00322E435707
:104960004D4F44452E2E2E0041542B43574D4F445E
:10497000453D310D0A000000332E2041542B435792
:10498000444843500D0A0000332E41542B435744F2
:104990004843502E2E2E000041542B435744484389
:1049A000503D312C310D0A00342E2043574A4150DE
:1049B0000D0A0000342E43574A41502E2E2E00007F
:1049C000474F54204950000041542B43574A41500F
:1049D0003D22473135222C223230303330343232CE
:1049E000220D0A00352E20455350383236362049E4
:1049F0006E6974204F4B0D0A000000004553502093
:104A0000496E6974204F4B00FE480068704770B5CE
:104A100004460D462CB9AC4201D0012070BD0020E7
:104A2000FCE70DB90120F9E705E0207808B900207E
:104A3000F4E7641C6D1C207801F07CFD06462878A4
:104A400001F078FD8642F0D0207801F073FD064633
:104A5000287801F06FFD301AE0E770B50446204673
:104A600002F0E2F8451C2846E74909688847061E17
:104A700000D170BD2A462146304602F04BF930463F
:104A8000F7E730B9E149E04A1160E149E14A1160D4
:104A90007047016809B1016800E0DC49DA4A116039
:104AA000416809B1416800E0D949DA4A116000BFA4
:104AB000EEE710B52820D4490968884704461CB1A0
:104AC0002821204602F0BFF9204610BD70B50446EB
:104AD00022E02568A08900F4807020B9A06810B198
:104AE000A068FFF7F3FFA08900F4807028B920695F
:104AF00018B1C849206909688847A08900F4007086
:104B000028B9206A18B1C349206A09688847204635
:104B1000C049096888472C46002CDAD170BD2DE9C0
:104B2000F04F8BB083468A46002004460546002697
:104B3000B94F0021884689460990012008909AF8CB
:104B400000002D2802D1B54F0AF1010A9AF80000A1
:104B5000302801D10AF1010A9AF80000312822DB3D
:104B60009AF8000039281EDC00BF1AF8011BA1F1D9
:104B7000300004F040FE0022A94BCDE9060120469A
:104B8000294604F08BFECDE90401DDE9062304F09B
:104B9000B3FB04460D469AF80000302803DB9AF870
:104BA00000003928E1DD9AF800002E2830D19AF86B
:104BB000010030282CDB9AF80100392828DC0AF1A2
:104BC000010A00BF1AF8011BA1F1300004F013FE26
:104BD0000022934BCDE906012046294604F05EFEF3
:104BE000CDE90401DDE9062304F086FB04460D4609
:104BF0000022894B4046494605F076F880468946B2
:104C00009AF80000302803DB9AF800003928D9DD33
:104C10009AF80000652803D09AF80000452823D1AF
:104C20000AF1010A9AF800002B2802D10AF1010AC0
:104C300008E09AF800002D2804D14FF0FF300890CA
:104C40000AF1010A08E01AF8010B3038099901EB62
:104C5000810100EB410009909AF80000302803DB45
:104C60009AF800003928EEDDDDE9082101FB02F0A9
:104C700004F0C1FD42464B46CDE9000104F03CFB87
:104C800002460B46CDE902010020654903F0F6FD1E
:104C900022462B46CDE906013046394604F0FEFD9A
:104CA000CDE90401DDE9062304F0F8FD04460D46D4
:104CB000CBE906452046294604F06EFDCBF81400EA
:104CC0000320CBF80C0050460BB0BDE8F08F014636
:104CD000491E41EA610141EAA10141EA211141EA8B
:104CE000212141EA2141481C70472DE9F041044649
:104CF0000E460CB1206810B90020BDE8F081A06814
:104D000006446068B04203DBA16820680844F4E709
:104D10003046FFF7DCFF074638463B4909688847BD
:104D200005463DB93B492068096888470020606016
:104D30002060E2E725B12846D4E9001201F0EAFF3D
:104D4000344920680968884767602560A06828445E
:104D5000D3E770B504460CB1206808B9002070BDD7
:104D6000A16820684518284601F05EFFA168084444
:104D7000F5E72DE9FC4782460E464FF00009DAE9D7
:104D80000645002213462046294604F0C9FC13D1EB
:104D90002EB102213046FFF7A8FF814604E0022031
:104DA0001949096888478146B9F1000F03D01DA051
:104DB0000088A9F800009FE0DAF8140004F01BFD59
:104DC000074622462B4604F08FFF21F000410022C7
:104DD000154BCDE9000104F025FD3ED8134A144BD4
:104DE0002046294604F01EFD37D80022114B2046EC
:104DF000294604F051FE30D806B315213046FFF79E
:104E000074FF19E0380000203C000020896400088D
:104E1000E7640008400000200000F03F0000F0BF01
:104E200000002440300000000000B03C0000C0FF43
:104E3000FFFFDF410000E0C1814604E01520FA4990
:104E4000096888478146B9F1000F55D0F7A1484657
:104E5000DAF8142001F096FB4EE02EB140213046E6
:104E6000FFF743FF814604E04020EF490968884787
:104E70008146B9F1000F3FD02046294603F090FC4F
:104E8000074622462B4604F02FFF21F00041002266
:104E9000E74BCDE9000104F0C5FC0FD825F0004137
:104EA0002746E44AE44B384604F0BCFC06D22246CE
:104EB0002B46E2A1484601F065FB1DE025F00041CC
:104EC0002746E04AE04B384604F0ACFC07D325F017
:104ED00000410022DD4B384604F0DEFD06D22246BA
:104EE0002B46DBA1484601F04DFB05E022462B4650
:104EF000D8A1484601F046FB4846BDE8FC8701467C
:104F000000220878302806DB0878392803DC087886
:104F10003038024415E00878412806DB0878462836
:104F200003DC0878373802440BE00878612806DB98
:104F30000878662803DC08785738024401E000202E
:104F400070471201491C0878302806DB0878392898
:104F500003DC08783038024415E00878412806DB85
:104F60000878462803DC0878373802440BE00878D4
:104F7000612806DB0878662803DC08785738024485
:104F800001E00020DCE71201491C0878302806DB2C
:104F90000878392803DC08783038024415E00878AE
:104FA000412806DB0878462803DC087837380244B5
:104FB0000BE00878612806DB0878662803DC0878AF
:104FC0005738024401E00020BAE71201491C087872
:104FD000302806DB0878392803DC087830380244AA
:104FE00015E00878412806DB0878462803DC0878B5
:104FF000373802440BE00878612806DB0878662819
:1050000003DC08785738024401E0002098E7104696
:1050100096E72DE9F05F8346884608F101040027F2
:1050200098F80000222805D08B48C0F800800020A6
:10503000BDE8F09F04E014F8011B5C2900D1641C5A
:105040002078222804D0207810B1781C071EF2D1D5
:10505000781C7549096888478146B9F1000F01D16C
:105060000020E5E708F101044D469EE020785C2829
:1050700004D014F8010B05F8010B96E0641C2078AD
:10508000722818D006DC622809D066280BD06E285A
:105090007ED10CE0742812D07528F9D113E00820D5
:1050A00005F8010B7FE00C2005F8010B7BE00A20DE
:1050B00005F8010B77E00D2005F8010B73E00920DE
:1050C00005F8010B6FE0601CFFF719FF0646241D71
:1050D000B6F55C4F02D3B6F5604F00D306B962E077
:1050E000B6F5584F1CD3B6F55C4F19D260785C28E2
:1050F00002D1A078752800D055E0E01CFFF7FFFE34
:105100008246A41DBAF55C4F02D3BAF5604F00D3B6
:1051100049E0C6F30901504661F39F2000F580364F
:105120000427802E01D2012708E0B6F5006F01D2D6
:10513000022703E0B6F5803F00D203273D44012F4C
:1051400020D0022F15D0032F0AD0042F24D106F02F
:10515000BF0040F08001681E05460170B60900BF1F
:1051600006F0BF0040F08001681E05460170B609D8
:1051700000BF06F0BF0040F08001681E05460170C8
:10518000B60900BF3548C05D3043C1B2681E00E0BB
:1051900005E00546017000BF00BF3D4403E02078F4
:1051A00005F8010B00BF00BF641C2078222803D043
:1051B000207800287FF45AAF002028702078222819
:1051C00000D1641CCBF810900420CBF80C002046D2
:1051D0002EE72DE9F05F804689460027BB4645460D
:1051E00011E02878002802DD2878202805DB2878BF
:1051F000222802D028785C2801D1012000E000207C
:1052000040EA0B0B6D1C28780028EAD1BBF1000F97
:105210003ED1A5EB0807B9F1000F21D0F91C484693
:10522000FFF763FD064620E03C00002025640000F7
:105230000000B03C44F3C2E4E4E9634C252E306640
:10524000000000008DEDB5A0F7C6B03E65CDCD41A4
:1052500025650000256600003800002012C6000801
:10526000F81CFD4909688847064616B90020BDE8C4
:10527000F09F3446222004F8010B4146204601F0FD
:10528000AFFC2220E0550021781C21543046EEE787
:10529000B8F1000F16D1B9F1000F05D0032148462F
:1052A000FFF723FD064604E00320EB490968884721
:1052B00006460EB90020DAE7E8A1304601F090FC7E
:1052C0003046D4E745460BE05146E5A001F05AFCD4
:1052D00008B17F1C03E0BAF1200F00DA7F1D6D1CBE
:1052E00095F800A0BAF1000F02D0781C071EEBD190
:1052F000B9F1000F05D0F91C4846FFF7F6FC064649
:1053000004E0F81CD4490968884706460EB9002015
:10531000ADE734464546222004F8010B47E02878E3
:105320001F280ADD2878222807D028785C2804D096
:1053300015F8010B04F8010B39E05C2004F8010BAF
:1053400015F8011B8A460C2919D006DC082912D051
:10535000092920D00A2922D115E00D2917D02229A8
:1053600005D05C291BD15C2004F8010B1EE0222033
:1053700004F8010B1AE0622004F8010B16E0662025
:1053800004F8010B12E06E2004F8010B0EE072200D
:1053900004F8010B0AE0742004F8010B06E0524601
:1053A000B1A1204601F0EEF8641D00BF00BF2878CF
:1053B0000028B4D1222004F8010B002004F8010BCE
:1053C000304654E770B504460D4629462069FFF77C
:1053D00000FF70BD00E0401C20B1017811B10178E0
:1053E0002029F8DD70472DE9F04706460C46207865
:1053F0007B2804D09E4804600020BDE8F08706208A
:10540000F060601CFFF7E6FF044620787D2801D19C
:10541000601CF2E7FFF74DFB0546B060B06808B9C5
:105420000020EAE72046FFF7D5FF804641462846A0
:10543000FFF7EFFD0746FFF7CDFF04460CB900204C
:10544000DBE7286928620020286120783A2803D009
:10545000874804600020D0E7601CFFF7BBFF804650
:105460004146284600F099F80746FFF7B3FF044687
:105470000CB90020C1E731E0FFF71BFB071E00D18C
:10548000BBE72F607D603D46601CFFF7A3FF8146B0
:1054900049462846FFF7BDFD8046FFF79BFF0446BF
:1054A0000CB90020A9E7286928620020286120782B
:1054B0003A2803D06E48046000209EE7601CFFF786
:1054C00089FF81464946284600F067F88046FFF785
:1054D00081FF04460CB900208FE700BF20782C28FC
:1054E000CAD020787D2801D1601C86E7604804601E
:1054F000002082E72DE9F04705460C4620785B281E
:1055000004D05B4804600020BDE8F0870520E86017
:10551000601CFFF75FFF044620785D2801D1601C06
:10552000F2E7FFF7C6FA0646A860A86808B90020A7
:10553000EAE72046FFF74EFF80464146304600F03E
:105540002CF80746FFF746FF04460CB90020DBE7BE
:1055500017E0FFF7AEFA071E00D1D5E737607E608F
:105560003E46601CFFF736FF81464946304600F054
:1055700014F88046FFF72EFF04460CB90020C3E75D
:1055800000BF20782C28E4D020785D2801D1601C51
:10559000BAE7374804600020B6E770B505460C4608
:1055A0000CB9002070BD042232A1204601F05BFB43
:1055B00018B90220E860201DF4E705222FA120463B
:1055C00001F051FB18B90020E860601DEAE70422F1
:1055D0002CA1204601F047FB20B90120E86068615A
:1055E000201DDFE72078222804D121462846FFF736
:1055F00010FDD7E720782D2805D02078302807DB4C
:105600002078392804DC21462846FFF788FAC9E7C4
:1056100020785B2804D121462846FFF76BFFC1E7BD
:1056200020787B2804D121462846FFF7DCFEB9E725
:105630000F4804600020B5E72DE9F04780460D468D
:1056400016460024FFF735FA07460020084908608F
:10565000E7B9BDE8F08700003C00002022220000EE
:10566000225C080C0A0D0900752530347800000012
:10567000380000206E756C6C0000000066616C7371
:105680006500000074727565000000004046FFF779
:10569000A1FE814649463846FFF77FFF04462CB9F4
:1056A0003846FFF713FA0020BDE8F08766B12046C0
:1056B000FFF790FE0446207830B13846FFF706FA2F
:1056C000FE4804600020EFE705B12C603846EBE7A8
:1056D00010B50446002211462046FFF7ADFF10BD6D
:1056E0002DE9FF4F89B0884616461F4600200890D6
:1056F000079006904FF0070A00250998D0F8089007
:10570000002002900190009004E00298401C02905A
:10571000D9F80090B9F1000FF7D10298002835D1DF
:1057200057B116B108F1040000E0032001463846E5
:10573000FFF7DBFA069009E016B108F1040100E07A
:1057400003210846DE49096888470690069818B97B
:1057500000200DB0BDE8F08F069C7B2004F8010B03
:1057600066B10A2004F8010B002503E0092004F8C3
:10577000010B6D1CA8F10100A842F7DC7D2004F8A4
:10578000010B002004F8010B0698E2E7002F77D008
:10579000BD680EB1022000E0012082460AF101013D
:1057A0003846FFF7A2FA04460CB90020D1E77B2067
:1057B00004F8010B16B10A2004F8010B0020207038
:1057C000B8685044B8600998D0F8089008F101080A
:1057D00068E0B6B141463846FFF787FA04460CB98F
:1057E0000020B6E70020039005E0092004F8010B33
:1057F0000398401C039003984045F6DBB86840448A
:10580000B8603946D9F82000FFF7E3FC3846FFF7C7
:10581000A0FAB8600EB1022000E001208246514695
:105820003846FFF762FA04460CB9002091E73A20A7
:1058300004F8010B16B1092004F8010BB8685044B4
:10584000B8603B4632464146484600F078FA384652
:10585000FFF77FFAB8600EB1012000E00020D9F810
:10586000001009B1012100E0002100EB010A0AF15A
:1058700001013846FFF739FA044614B9002068E7F9
:1058800034E0D9F8000010B12C2004F8010B16B157
:105890000A2004F8010B00202070B8685044B8605A
:1058A000D9F80090B9F1000F93D116B108F10100B9
:1058B00000E0022001463846FFF717FA04460CB90B
:1058C000002046E74EB1002503E0092004F8010B53
:1058D0006D1CA8F10100A842F7DC7D2004F8010B43
:1058E0000020207038682844069005E1029988005D
:1058F0007349096888470890089808B9002028E784
:10590000029988006E49096888470790079828B966
:105910006C4908980968884700201AE702988100B6
:10592000089801F090FA02988100079801F08BFA2C
:105930000998D0F8089008F1010806B1C2442EE099
:105940000021D9F82000FFF744FC0490079941F8A2
:105950002500002332464146484600F0F0F929462A
:105960006D1C0590089A42F82100049898B105989A
:1059700088B1059801F058F98346049801F054F96C
:105980000BEB0001891C16B108F1020000E00020B9
:105990000844824401E001200190D9F80090B9F157
:1059A000000FCDD1019820B9504645490968884774
:1059B0000690069808B901200190019818B30025B7
:1059C00014E0079850F8250028B1079951F82500F0
:1059D0003C4909688847089850F8250028B108997B
:1059E00051F825003749096888476D1C029885429F
:1059F000E7DB3449079809688847324908980968FD
:105A000088470020A5E67B21069801700698441C73
:105A100016B10A2004F8010B00202070002548E090
:105A20005EB10020039005E0092004F8010B039803
:105A3000401C039003984045F6DB079951F8250078
:105A400001F0F2F80090079850F825102046009ACF
:105A500001F060F9009804443A2004F8010B16B1F3
:105A6000092004F8010B089850F82510204601F091
:105A7000B7F8089951F8250001F0D6F804440298C7
:105A8000401EA84202D02C2004F8010B16B10A20B7
:105A900004F8010B00202070079951F825000949EE
:105AA00009688847089951F8250006490968884718
:105AB0006D1C02988542B3DB024905E038000020E6
:105AC0003C00002040000020079809688847F749FB
:105AD0000898096888474EB1002503E0092004F8BA
